:020000040800F2
:1000000060060020190200082102000823020008EF
:10001000250200082702000829020008000000004D
:100020000000000000000000000000002B0200089B
:100030002D020008000000002F0200083102000815
:1000400033020008330200083302000833020008BC
:1000500033020008330200083302000833020008AC
:10006000330200083302000833020008330200089C
:10007000330200083302000833020008330200088C
:1000800033020008330200083302000800000000B9
:100090000000000000000000000000003302000823
:1000A000330200083302000833020008330200085C
:1000B000330200083302000833020008330200084C
:1000C000330200083302000833020008330200083C
:1000D0003302000833020008330200080000000069
:1000E0003302000833020008330200080000000059
:1000F00000000000000000000000000033020008C3
:100100000000000033020008330200083302000838
:1001100000000000000000000000000000000000DF
:1001200033020008330200083302000833020008DB
:100130003302000800000000000000000000000082
:100140000000000000000000000000003302000872
:1001500033020008330200083302000833020008AB
:100160003302000833020008000000000000000015
:10017000000000000000000000000000000000007F
:100180000000000033020008000000000000000032
:100190003302000800F002F800F02EF80AA090E800
:1001A000000C82448344AAF10107DA4501D100F032
:1001B00023F8AFF2090EBAE80F0013F0010F18BFD1
:1001C000FB1A43F0010318470C0200001C02000058
:1001D0000023002400250026103A28BF78C1FBD850
:1001E000520728BF30C148BF0B6070471FB500F0F1
:1001F000E4F81FBD10B510BD00F031F81146FFF74F
:10020000F5FF00F0B5F800F04FF803B4FFF7F2FF88
:1002100003BC00F057F80000094880470948004730
:10022000FEE7FEE7FEE7FEE7FEE7FEE7FEE7FEE7A6
:10023000FEE7FEE704480549054A064B7047000003
:100240005D030008950100086000002060060020A2
:1002500060020020600200207047704770477546BA
:1002600000F02CF8AE4605006946534620F0070022
:10027000854618B020B5FFF7DDFFBDE820404FF000
:1002800000064FF000074FF000084FF0000BAC469F
:10029000ACE8C009ACE8C009ACE8C009ACE8C009EA
:1002A00021F007018D46704710B50446AFF300807A
:1002B0002046BDE81040FFF7A8BF00000048704787
:1002C0000000002001491820ABBEFEE72600020016
:1002D0007047000040F20041C4F20201086820F4B7
:1002E0004060086040F20C41C4F20201086820F44A
:1002F00000600860086840F4806008607047000093
:1003000043F63001C4F20201086840F006000860BC
:1003100040F60001C4F20201086840F08060086005
:10032000086820F00060086040F60401C4F2020191
:10033000086820F40050086040F60801C4F2020189
:10034000086820F04060086040F60C01C4F2020129
:10035000086820F040600860704700004EF6885141
:10036000CEF20001086840F4700008607047000099
:1003700080B582B000200190FFF7C2FFFFF7AAFF0F
:10038000FFE740F21040C4F2020000688006002837
:1003900009D4FFE740F61401C4F20201086840F4F2
:1003A0000050086008E040F61401C4F20201086839
:1003B00020F400500860FFE7E3E7F1EE100A4FF683
:1003C000FF71C0F2C03120EA010040F04070E1EE60
:1003D000100A7047E40300080000002060060000D7
:0403E000D001000840
:0400000508000219D4
:00000001FF
