:020000040800F2
:1000000000800120C9100008D10F0008D70F000898
:10001000DD0F0008E30F0008E90F000800000000F2
:10002000000000000000000000000000EF0F0008CA
:10003000FD0F0008000000000B1000081910000858
:1000400019110008191100081911000819110008E8
:1000500019110008191100081911000819110008D8
:1000600019110008191100081911000819110008C8
:1000700019110008191100081911000819110008B8
:1000800019110008191100081911000800000000DA
:10009000000000000000000000000000191100082E
:1000A000191100082510000819110008191100087D
:1000B0001911000819110008191100081911000878
:1000C0001911000819110008191100081911000868
:1000D000191100081911000819110008000000008A
:1000E000191100081911000819110008000000007A
:1000F00000000000000000000000000019110008CE
:100100000000000019110008191100081911000859
:1001100000000000000000000000000000000000DF
:100120001911000819110008191100081911000807
:10013000191100080000000000000000000000008D
:10014000000000000000000000000000191100087D
:1001500019110008191100081911000819110008D7
:10016000191100081911000800000000000000002B
:10017000000000000000000000000000000000007F
:10018000000000001911000800000000000000003D
:040190001911000839
:1001A00010B5054C237833B9044B13B10448AFF3B1
:1001B00000800123237010BD7000002000000000AB
:1001C0005433000808B5034B1BB103490348AFF390
:1001D000008008BD000000007400002054330008B7
:1001E00001F0FF01102A2BDB10F0070F08D010F8E8
:1001F000013B013A8B422DD010F0070F42B3F6D1EC
:10020000F0B441EA012141EA014122F007047FF004
:1002100000070023F0E80256083C85EA010586EA5B
:10022000010685FA47F5A3FA87F586FA47F6A5FA97
:1002300087F68EB9EED1F0BC01F0FF0102F00702A3
:1002400032B110F8013B013A83EA010313B1F8D14E
:100250000020704701387047002D06BF354603382F
:10026000073815F0010F07D1013015F4807F02BF68
:10027000013015F4C03F0130F0BC0138704700BFB9
:1002800053B94AB9002908BF00281CBF4FF0FF31FD
:100290004FF0FF3000F074B9ADF1080C6DE904CEF9
:1002A00000F006F8DDF804E0DDE9022304B0704751
:1002B0002DE9F047089D04468E46002B4DD18A4219
:1002C000944669D9B2FA82F252B101FA02F3C2F14C
:1002D000200120FA01F10CFA02FC41EA030E9440DD
:1002E0004FEA1C48210CBEFBF8F61FFA8CF708FBFE
:1002F00016E341EA034306FB07F199420AD91CEBD6
:10030000030306F1FF3080F01F81994240F21C8107
:10031000023E63445B1AA4B2B3FBF8F008FB10334F
:1003200044EA034400FB07F7A7420AD91CEB040484
:1003300000F1FF3380F00A81A74240F20781644454
:10034000023840EA0640E41B00261DB1D4400023D9
:10035000C5E900433146BDE8F0878B4209D9002D3D
:1003600000F0EF800026C5E9000130463146BDE8C7
:10037000F087B3FA83F6002E4AD18B4202D3824231
:1003800000F2F980841A61EB030301209E46002DE0
:10039000E0D0C5E9004EDDE702B9FFDEB2FA82F235
:1003A000002A40F09280A1EB0C014FEA1C471FFA93
:1003B0008CFE0126200CB1FBF7F307FB131140EA7A
:1003C00001410EFB03F0884208D91CEB010103F147
:1003D000FF3802D2884200F2CB804346091AA4B209
:1003E000B1FBF7F007FB101144EA01440EFB00FEDD
:1003F000A64508D91CEB040400F1FF3102D2A64542
:1004000000F2BB800846A4EB0E0440EA03409CE7E0
:10041000C6F12007B34022FA07FC4CEA030C20FA8D
:1004200007F401FA06F31C43F9404FEA1C4900FAAD
:1004300006F3B1FBF9F8200C1FFA8CFE09FB18112A
:1004400040EA014108FB0EF0884202FA06F20BD99D
:100450001CEB010108F1FF3A80F08880884240F2ED
:100460008580A8F102086144091AA4B2B1FBF9F031
:1004700009FB101144EA014100FB0EFE8E4508D92C
:100480001CEB010100F1FF346CD28E456AD90238B1
:10049000614440EA0840A0FB0294A1EB0E01A14296
:1004A000C846A64656D353D05DB1B3EB080261EB04
:1004B0000E0101FA07F722FA06F3F1401F43C5E9DE
:1004C000007100263146BDE8F087C2F12003D84014
:1004D0000CFA02FC21FA03F3914001434FEA1C4756
:1004E0001FFA8CFEB3FBF7F007FB10360B0C43EA48
:1004F000064300FB0EF69E4204FA02F408D91CEBF8
:10050000030300F1FF382FD29E422DD902386344F5
:100510009B1B89B2B3FBF7F607FB163341EA034195
:1005200006FB0EF38B4208D91CEB010106F1FF38E4
:1005300016D28B4214D9023E6144C91A46EA0046DB
:1005400038E72E46284605E70646E3E61846F8E66D
:100550004B45A9D2B9EB020864EB0C0E0138A3E7B6
:100560004646EAE7204694E74046D1E7D0467BE797
:10057000023B614432E7304609E76444023842E70F
:10058000704700BF90B482B000AF044608461146E1
:100590001A462346FB710346BB710B467B7113461B
:1005A0003B71FB79032B00F08E80032B00F3CE8090
:1005B000012B02D0022B43D0C8E0674B1B68664A70
:1005C00043F001031360654B1B687979BA795200D7
:1005D00001FA02F21146614A0B4313607B79012B49
:1005E00022D15E4B1B687979BA795200013201FA47
:1005F00002F2D2431146594A0B401360574B5B68D5
:10060000BA79012101FA02F2D2431146534A0B4052
:100610005360524B9B683979BA79520001FA02F261
:1006200011464E4A0B4393604C4BDB68397CBA79D8
:10063000520001FA02F21146484A0B43D36085E0AA
:10064000454B1B68444A43F002031360444B1B684C
:100650007979BA79520001FA02F21146404A0B4305
:1006600013607B79012B22D13D4B1B687979BA79D4
:100670005200013201FA02F2D2431146384A0B40CD
:100680001360374B5B68BA79012101FA02F2D24359
:100690001146334A0B405360314B9B683979BA7924
:1006A000520001FA02F211462D4A0B4393602C4B83
:1006B000DB68397CBA79520001FA02F21146284A05
:1006C0000B43D36042E0244B1B68234A43F00403EE
:1006D0001360244B1B687979BA79520001FA02F24F
:1006E0001146204A0B4313607B79012B22D11D4B0D
:1006F0001B687979BA795200013201FA02F2D243C9
:100700001146184A0B401360164B5B68BA790121F9
:1007100001FA02F2D2431146124A0B405360114BC8
:100720009B683979BA79520001FA02F211460D4AF2
:100730000B4393600B4BDB68397CBA79520001FAAA
:1007400002F21146074A0B43D36000BF00BF0837CF
:10075000BD4690BC704700BF3038024000000240E8
:10076000000402400008024080B483B000AF03469A
:10077000FB71FB7903F00103002B06D0244B5B696E
:10078000234A43F01003536105E0214B5B69204A83
:1007900023F010035361FB7903F00203002B06D012
:1007A0001C4B5B691B4A43F00103536105E0194B85
:1007B0005B69184A23F001035361FB7903F00403DA
:1007C000002B06D0144B5B69134A43F001035361BD
:1007D00005E0114B5B69104A23F001035361FB797B
:1007E00003F00803002B06D00B4B5B690A4A43F069
:1007F0000203536105E0084B5B69074A23F00203DB
:10080000536100BF0C37BD465DF8047B704700BFE5
:1008100000000240000402400008024080B582B09F
:1008200000AF0346FB710E4B5B690D4A23F00403D6
:1008300053610B4B5B690A4A43F004035361FB7934
:100840001846FFF791FF022000F0DAFC044B5B69C9
:10085000034A23F00403536100BF0837BD4680BD3F
:100860000000024080B582B002AF00230093012354
:10087000012202210120FFF785FE002300930123BE
:10088000012201210120FFF77DFE002300930123B7
:10089000012204210120FFF775FE002300930123AC
:1008A000012200210220FFF76DFE002300930123A7
:1008B000012201210320FFF765FE0023009301239D
:1008C000012200210320FFF75DFE0320FFF7A6FFB2
:1008D0000320FFF7A3FF0320FFF7A0FF0220FFF78D
:1008E0009DFF0220FFF79AFF0820FFF797FF0020E7
:1008F000FFF794FF0820FFF791FF0020FFF78EFF1E
:100900000120FFF78BFF0020FFF788FF0C20FFF787
:1009100085FF00BFBD4680BD80B584B000AF0346F3
:100920000A46FB711346BB712C4B5B692B4A23F0C3
:1009300002035361BB79013B032B4BD801A252F850
:1009400023F000BF55090008750900089509000843
:10095000B5090008FB79803BFB73FB7980331B11E1
:10096000BB73BB7B1846FFF759FFFB7B1846FFF7AD
:1009700055FF2FE0FB79403BFB73FB79C0331B1124
:10098000BB73BB7B1846FFF749FFFB7B1846FFF79D
:1009900045FF1FE0FB796C3BFB73FB7994331B1124
:1009A000BB73BB7B1846FFF739FFFB7B1846FFF78D
:1009B00035FF0FE0FB792C3BFB73FB79D4331B1124
:1009C000BB73BB7B1846FFF729FFFB7B1846FFF77D
:1009D00025FF00BF00BF1037BD4680BD00000240AC
:1009E00080B584B000AF0346FB71FB791B09FB7334
:1009F000FB79BB73084B5B69074A43F00203536101
:100A0000FB7B1846FFF70AFFBB7B1846FFF706FF84
:100A100000BF1037BD4680BD0000024080B584B0E5
:100A200000AF78607B68FB6006E0FB685A1CFA60E8
:100A30001B781846FFF7D4FFFB681B78002BF4D116
:100A400000BF00BF1037BD4680BD000080B586B036
:100A500000AF00F063FB00F035F800F089F900F01A
:100A600091F800F0DFF800F02FF9FFF7FBFE1248D5
:100A700001F00EFB01210020FFF74EFF0F48FFF7AA
:100A8000CDFF0D4B1B685B6A7B613B467A690C4965
:100A9000184601F0F1FF02210020FFF73DFF3B4621
:100AA0001846FFF7BBFF7B69652BE3D1024B1B6840
:100AB00000225A62DEE700BF1C0100206C330008F0
:100AC0008433000880B594B000AF07F120033022D2
:100AD0000021184601F0C8FF07F10C0300221A603C
:100AE0005A609A60DA601A610023BB60234B1B6C6A
:100AF000224A43F080531364204B1B6C03F0805355
:100B0000BB60BB6800237B601D4B1B6823F4404324
:100B10001B4A43F400431360194B1B6803F4404322
:100B20007B607B6802233B620123FB6210233B63F3
:100B30000023BB6307F12003184600F035FE03468F
:100B4000002B01D000F07CF90F23FB6000233B61F8
:100B500000237B610023BB610023FB6107F10C03D1
:100B60000021184601F098F80346002B01D000F050
:100B700067F900BF5037BD4680BD00BF0038024056
:100B80000070004080B586B000AF07F10803002276
:100B90001A605A609A60DA603B4600221A605A6016
:100BA0001E4B1F4A1A601D4B00225A601B4B00222D
:100BB0009A601A4B43F67F62DA60184B00221A6182
:100BC000164B00225A61154B00229A61134801F01E
:100BD0000FFA0346002B01D000F032F94FF4805396
:100BE000BB6007F1080319460C4801F0B3FB03464C
:100BF000002B01D000F024F900233B6000237B6030
:100C00003B461946054801F083FE0346002B01D000
:100C100000F016F900BF1837BD4680BD8C000020DB
:100C20000000014080B588B000AF07F10C0300223E
:100C30001A605A609A60DA601A613B1D00221A60DD
:100C40005A60204B4FF080421A601E4B00225A60BF
:100C50001C4B00229A601B4B4FF0FF32DA60194B9D
:100C600000221A61174B00229A61164801F0C0F960
:100C70000346002B01D000F0E3F80723FB6050236C
:100C80003B6100237B610023FB6107F10C031946E4
:100C90000C4801F026FC0346002B01D000F0D0F8F0
:100CA00000237B600023BB603B1D1946054801F013
:100CB0002FFE0346002B01D000F0C2F800BF203702
:100CC000BD4680BDD400002080B588B000AF07F1DC
:100CD0000C0300221A605A609A60DA601A613B1DA8
:100CE00000221A605A60204B204A1A601E4B0022D4
:100CF0005A601D4B00229A601B4B4FF6FF72DA6060
:100D0000194B00221A61184B00229A61164801F013
:100D10006FF90346002B01D000F092F80723FB6027
:100D200050233B6100237B610023FB6107F10C032F
:100D300019460D4801F0D5FB0346002B01D000F009
:100D40007FF800237B600023BB603B1D19460648EB
:100D500001F0DEFD0346002B01D000F071F800BF6A
:100D60002037BD4680BD00BF1C01002000040040AC
:100D700080B588B000AF07F10C0300221A605A60FA
:100D80009A60DA601A610023BB601F4B1B6B1E4A1E
:100D900043F0010313631C4B1B6B03F00103BB60A7
:100DA000BB6800237B60184B1B6B174A43F004039E
:100DB0001363154B1B6B03F004037B607B680022FD
:100DC0002121124800F0D6FC2123FB6001233B6166
:100DD00000237B610023BB6107F10C0319460B481C
:100DE00000F044FB4023FB604FF488133B61002379
:100DF0007B6107F10C031946044800F037FB00BF84
:100E00002037BD4680BD00BF0038024000000240D0
:100E100080B483B000AF78607B68074A934205D105
:100E2000064B5B69054A83F02003536100BF0C3712
:100E3000BD465DF8047B70478C0000200000024036
:100E400080B400AF72B600BFFEE7000080B483B08C
:100E500000AF00237B60104B5B6C0F4A43F4804370
:100E600053640D4B5B6C03F480437B607B68002311
:100E70003B60094B1B6C084A43F080531364064BDC
:100E80001B6C03F080533B603B6800BF0C37BD46D2
:100E90005DF8047B704700BF0038024080B58CB01D
:100EA00000AF786007F11C0300221A605A609A6054
:100EB000DA601A617B681B68404A934216D10023AE
:100EC000BB613F4B5B6C3E4A43F0010353643C4BB8
:100ED0005B6C03F00103BB61BB6900220121192097
:100EE00000F08DFA192000F0A6FA63E07B681B6819
:100EF000B3F1804F2DD100237B61314B1B6C304A05
:100F000043F0010313642E4B1B6C03F001037B6160
:100F10007B6900233B612A4B1B6B294A43F0010389
:100F20001363274B1B6B03F001033B613B694FF4D9
:100F30000043FB6102233B6200237B620023BB6210
:100F40000123FB6207F11C0319461E4800F08EFACC
:100F500030E07B681B681C4A93422BD10023FB6066
:100F6000174B1B6C164A43F002031364144B1B6CA3
:100F700003F00203FB60FB680023BB60104B1B6B9C
:100F80000F4A43F0040313630D4B1B6B03F0040380
:100F9000BB60BB684023FB6102233B6200237B6292
:100FA0000023BB620223FB6207F11C0319460748BA
:100FB00000F05CFA00BF3037BD4680BD0000014044
:100FC00000380240000002400004004000080240D7
:100FD00080B400AFFEE780B400AFFEE780B400AF9E
:100FE000FEE780B400AFFEE780B400AFFEE780B458
:100FF00000AF00BFBD465DF8047B704780B400AF12
:1010000000BFBD465DF8047B704780B400AF00BFF1
:10101000BD465DF8047B704780B500AF00F0D0F8A6
:1010200000BF80BD80B500AF024801F08BF800BF63
:1010300080BD00BF8C00002080B586B000AF786016
:10104000144A154BD31A7B617B693B61134B1B68B8
:10105000002B02D1114B124A1A60104B1A687B68A0
:1010600013443A699A4207D201F0D4FC03460C2299
:101070001A604FF0FF3309E0084B1B68FB60074B19
:101080001A687B681344054A1360FB6818461837D2
:10109000BD4680BD008001200004000064010020E6
:1010A0008001002080B400AF064BD3F88830054A99
:1010B00043F47003C2F8883000BFBD465DF8047B7E
:1010C000704700BF00ED00E0DFF834D00D480E4956
:1010D0000E4A002302E0D458C4500433C4188C4292
:1010E000F9D30B4A0B4C002301E013600432A242F7
:1010F000FBD3FFF7D7FF01F093FCFFF7A7FC704786
:10110000008001200000002070000020E033000873
:10111000700000207C010020FEE7000080B500AFD9
:101120000E4B1B680D4A43F4007313600B4B1B6896
:101130000A4A43F480631360084B1B68074A43F470
:1011400080731360032000F04FF90F2000F008F8BF
:10115000FFF77CFE0023184680BD00BF003C024024
:1011600080B582B000AF7860124B1A68124B1B78C2
:1011700019464FF47A73B3FBF1F3B2FBF3F318465D
:1011800000F067F90346002B01D001230EE07B68D5
:101190000F2B0AD8002279684FF0FF3000F02FF9AA
:1011A000064A7B681360002300E0012318460837D5
:1011B000BD4680BD00000020080000200400002083
:1011C00080B400AF064B1B781A46064B1B681344CD
:1011D000044A136000BFBD465DF8047B704700BF42
:1011E000080000206801002080B400AF034B1B689A
:1011F0001846BD465DF8047B704700BF68010020BB
:1012000080B584B000AF7860FFF7EEFFB8607B6810
:10121000FB60FB68B3F1FF3F05D00A4B1B781A4611
:10122000FB681344FB6000BFFFF7DEFF0246BB68AC
:10123000D31AFA689A42F7D800BF00BF1037BD46EC
:1012400080BD00BF0800002080B485B000AF78608A
:101250007B6803F00703FB600C4BDB68BB60BA687C
:101260004FF6FF031340BB60FB681A02BB681343D1
:1012700043F0BF6343F40033BB60044ABB68D360F0
:1012800000BF1437BD465DF8047B704700ED00E0F9
:1012900080B400AF044BDB681B0A03F00703184659
:1012A000BD465DF8047B704700ED00E080B483B07C
:1012B00000AF0346FB7197F90730002B0BDBFB797E
:1012C00003F01F02074997F907305B09012000FA74
:1012D00002F241F8232000BF0C37BD465DF8047BC5
:1012E000704700BF00E100E080B483B000AF034668
:1012F0003960FB7197F90730002B0ADB3B68DAB2E3
:101300000C4997F907301201D2B20B4483F800233D
:101310000AE03B68DAB20849FB7903F00F03043BAB
:101320001201D2B20B441A7600BF0C37BD465DF8ED
:10133000047B704700E100E000ED00E080B489B07C
:1013400000AFF860B9607A60FB6803F00703FB61E7
:10135000FB69C3F10703042B28BF0423BB61FB69AE
:101360000433062B02D9FB69033B00E000237B61B9
:101370004FF0FF32BB6902FA03F3DA43BB681A404D
:101380007B699A404FF0FF317B6901FA03F3D9433F
:101390007B680B40134318462437BD465DF8047B39
:1013A0007047000080B582B000AF78607B68013B79
:1013B000B3F1807F01D301230FE00A4A7B68013B30
:1013C00053600F214FF0FF30FFF78EFF054B0022D7
:1013D0009A60044B07221A60002318460837BD465E
:1013E00080BD00BF10E000E080B582B000AF786043
:1013F0007868FFF729FF00BF0837BD4680BD80B57C
:1014000086B000AF0346B9607A60FB7300237B614E
:10141000FFF73EFF78617A68B9687869FFF78EFF59
:10142000024697F90F3011461846FFF75DFF00BFDF
:101430001837BD4680BD80B582B000AF0346FB7152
:1014400097F907301846FFF731FF00BF0837BD4650
:1014500080BD80B582B000AF78607868FFF7A2FFEA
:10146000034618460837BD4680BD000080B489B0E9
:1014700000AF7860396000237B6100233B6100236B
:10148000BB610023FB6159E10122FB6902FA03F30E
:101490007B613B681B687A6913403B613A697B69F1
:1014A0009A4240F048813B685B6803F00303012BDC
:1014B00005D03B685B6803F00303022B30D17B68E7
:1014C0009B68BB61FB695B00032202FA03F3DB4309
:1014D000BA691340BB613B68DA68FB695B0002FADA
:1014E00003F3BA691343BB617B68BA699A607B688E
:1014F0005B68BB610122FB6902FA03F3DB43BA6953
:101500001340BB613B685B681B0903F00102FB6988
:1015100002FA03F3BA691343BB617B68BA695A6084
:101520003B685B6803F00303032B17D07B68DB6821
:10153000BB61FB695B00032202FA03F3DB43BA6978
:101540001340BB613B689A68FB695B0002FA03F3D6
:10155000BA691343BB617B68BA69DA603B685B6850
:1015600003F00303022B23D1FB69DA087B680832FE
:1015700053F82230BB61FB6903F007039B000F2285
:1015800002FA03F3DB43BA691340BB613B681A6993
:10159000FB6903F007039B0002FA03F3BA691343E4
:1015A000BB61FB69DA087B680832B96943F822102D
:1015B0007B681B68BB61FB695B00032202FA03F3D3
:1015C000DB43BA691340BB613B685B6803F003020D
:1015D000FB695B0002FA03F3BA691343BB617B68E2
:1015E000BA691A603B685B6803F44033002B00F073
:1015F000A2800023FB60574B5B6C564A43F4804348
:101600005364544B5B6C03F48043FB60FB68524AA9
:10161000FB699B08023352F82330BB61FB6903F07E
:1016200003039B000F2202FA03F3DB43BA69134062
:10163000BB617B68494A934219D07B68484A934210
:1016400013D07B68474A93420DD07B68464A934249
:1016500007D07B68454A934201D1042308E0072361
:1016600006E0032304E0022302E0012300E000235C
:10167000FA6902F0030292009340BA691343BB6116
:101680003549FB699B080233BA6941F82320384B7E
:101690009B68BB613B69DB43BA691340BB613B6834
:1016A0005B6803F48013002B03D0BA693B691343D2
:1016B000BB612F4ABB6993602D4BDB68BB613B6903
:1016C000DB43BA691340BB613B685B6803F40013FA
:1016D000002B03D0BA693B691343BB61244ABB6941
:1016E000D360234B5B68BB613B69DB43BA69134042
:1016F000BB613B685B6803F40033002B03D0BA691D
:101700003B691343BB611A4ABB695360184B1B68A2
:10171000BB613B69DB43BA691340BB613B685B68F3
:1017200003F48033002B03D0BA693B691343BB61D8
:101730000F4ABB691360FB690133FB61FB690F2B27
:101740007FF6A2AE00BF00BF2437BD465DF8047B24
:10175000704700BF003802400038014000000240DE
:101760000004024000080240000C02400010024049
:10177000003C014080B483B000AF78600B467B80B2
:1017800013467B707B78002B03D07A887B689A6144
:1017900003E07B881A047B689A6100BF0C37BD4662
:1017A0005DF8047B7047000080B586B000AF7860BC
:1017B0007B68002B01D1012367E27B681B6803F083
:1017C0000103002B75D0884B9B6803F00C03042B9E
:1017D0000CD0854B9B6803F00C03082B12D1824B75
:1017E0005B6803F48003B3F5800F0BD17E4B1B685D
:1017F00003F40033002B5BD07B685B68002B57D170
:10180000012342E27B685B68B3F5803F06D1764BEB
:101810001B68754A43F4803313601DE07B685B6886
:10182000B3F5A02F0CD1704B1B686F4A43F4802393
:1018300013606D4B1B686C4A43F4803313600BE0FC
:10184000694B1B68684A23F480331360664B1B683E
:10185000654A23F4802313607B685B68002B13D0F8
:10186000FFF7C2FC386108E0FFF7BEFC02463B69A7
:10187000D31A642B01D9032307E25B4B1B6803F4E3
:101880000033002BF0D014E0FFF7AEFC386108E025
:10189000FFF7AAFC02463B69D31A642B01D9032344
:1018A000F3E1514B1B6803F40033002BF0D100E04F
:1018B00000BF7B681B6803F00203002B63D04A4B18
:1018C0009B6803F00C03002B0BD0474B9B6803F085
:1018D0000C03082B1CD1444B5B6803F48003002BE2
:1018E00016D1414B1B6803F00203002B05D07B6827
:1018F000DB68012B01D00123C7E13B4B1B6823F0C0
:10190000F8027B681B69DB00374913430B603AE040
:101910007B68DB68002B20D0344B01221A60FFF774
:1019200063FC386108E0FFF75FFC02463B69D31AAD
:10193000022B01D90323A8E12B4B1B6803F0020300
:10194000002BF0D0284B1B6823F0F8027B681B6942
:10195000DB00254913430B6015E0244B00221A607D
:10196000FFF742FC386108E0FFF73EFC02463B69A6
:10197000D31A022B01D9032387E11B4B1B6803F009
:101980000203002BF0D17B681B6803F00803002BD7
:1019900036D07B685B69002B16D0154B01221A608C
:1019A000FFF722FC386108E0FFF71EFC02463B69A6
:1019B000D31A022B01D9032367E10B4B5B6F03F0B2
:1019C0000203002BF0D01BE0094B00221A60FFF746
:1019D0000BFC38610EE0FFF707FC02463B69D31AA7
:1019E000022B07D9032350E1003802400000474290
:1019F000800E4742884B5B6F03F00203002BEAD155
:101A00007B681B6803F00403002B00F09780002321
:101A1000FB75814B1B6C03F08053002B0FD100230F
:101A2000BB607D4B1B6C7C4A43F0805313647A4B44
:101A30001B6C03F08053BB60BB680123FB75774BC5
:101A40001B6803F48073002B18D1744B1B68734A16
:101A500043F480731360FFF7C7FB386108E0FFF7BA
:101A6000C3FB02463B69D31A022B01D903230CE1C5
:101A70006A4B1B6803F48073002BF0D07B689B6873
:101A8000012B06D1644B1B6F634A43F001031367BC
:101A90001CE07B689B68052B0CD15F4B1B6F5E4A7B
:101AA00043F0040313675C4B1B6F5B4A43F0010375
:101AB00013670BE0584B1B6F574A23F00103136762
:101AC000554B1B6F544A23F0040313677B689B68D4
:101AD000002B15D0FFF788FB38610AE0FFF784FB85
:101AE00002463B69D31A41F28832934201D903235B
:101AF000CBE0494B1B6F03F00203002BEED014E048
:101B0000FFF772FB38610AE0FFF76EFB02463B69A4
:101B1000D31A41F28832934201D90323B5E03E4BF8
:101B20001B6F03F00203002BEED1FB7D012B05D1CF
:101B3000394B1B6C384A23F0805313647B689B69D4
:101B4000002B00F0A180344B9B6803F00C03082BA2
:101B50005CD07B689B69022B41D1314B00221A601B
:101B6000FFF742FB386108E0FFF73EFB02463B69A6
:101B7000D31A022B01D9032387E0274B1B6803F0FC
:101B80000073002BF0D17B68DA697B681B6A1A430B
:101B90007B685B6A9B011A437B689B6A5B08013B1D
:101BA0001B041A437B68DB6A1B061B4913434B600B
:101BB0001B4B01221A60FFF717FB386108E0FFF7A3
:101BC00013FB02463B69D31A022B01D903235CE0C5
:101BD000114B1B6803F00073002BF0D054E0104B46
:101BE00000221A60FFF700FB386108E0FFF7FCFAFB
:101BF00002463B69D31A022B01D9032345E0064B69
:101C00001B6803F00073002BF0D13DE07B689B69FB
:101C1000012B07D1012338E000380240007000405A
:101C2000600047421B4B5B68FB607B689B69012B34
:101C300028D0FB6803F480027B68DB699A4221D1DB
:101C4000FB6803F03F027B681B6A9A421AD1FA686C
:101C500047F6C07313407A68526A9201934211D1D9
:101C6000FB6803F440327B689B6A5B08013B1B0402
:101C70009A4207D1FB6803F070627B68DB6A1B063F
:101C80009A4201D0012300E0002318461837BD46D0
:101C900080BD00BF0038024080B584B000AF7860DE
:101CA00039607B68002B01D10123CCE0684B1B68B5
:101CB00003F007033A689A420CD9654B3A68D2B2EE
:101CC0001A70634B1B6803F007033A689A4201D00D
:101CD0000123B8E07B681B6803F00203002B20D0CF
:101CE0007B681B6803F00403002B05D0594B9B68ED
:101CF000584A43F4E05393607B681B6803F0080381
:101D0000002B05D0534B9B68524A43F460439360C9
:101D1000504B9B6823F0F0027B689B684D4913434E
:101D20008B607B681B6803F00103002B44D07B6849
:101D30005B68012B07D1474B1B6803F40033002B72
:101D400019D101237FE07B685B68022B03D07B689D
:101D50005B68032B07D13F4B1B6803F00073002B1C
:101D600009D101236FE03B4B1B6803F00203002BFA
:101D700001D1012367E0374B9B6823F003027B68A6
:101D80005B68344913438B60FFF72EFAF8600AE072
:101D9000FFF72AFA0246FB68D31A41F288329342CF
:101DA00001D903234FE02B4B9B6803F00C027B68A7
:101DB0005B689B009A42EBD1254B1B6803F007033D
:101DC0003A689A420CD2224B3A68D2B21A70204B2F
:101DD0001B6803F007033A689A4201D0012332E0FE
:101DE0007B681B6803F00403002B08D0194B9B6829
:101DF00023F4E0527B68DB68164913438B607B68F1
:101E00001B6803F00803002B09D0124B9B6823F4D6
:101E100060427B681B69DB000E4913438B6000F056
:101E200021F802460B4B9B681B0903F00F030A497C
:101E3000CB5C22FA03F3094A1360094B1B6818466E
:101E4000FFF78EF9002318461037BD4680BD00BF4E
:101E5000003C0240003802408C33000800000020A3
:101E6000040000202DE9B04F90B000AF00237B6349
:101E70000023FB6300233B630023BB63594B9B6838
:101E800003F00C03082B0DD0082B00F2A180002BCF
:101E900002D0042B03D09BE0534BBB639BE0534B1E
:101EA000BB6398E04F4B5B6803F03F037B634D4B94
:101EB0005B6803F48003002B28D04A4B5B689B09C6
:101EC00000223B627A623B6AC3F308000021474B61
:101ED00003FB01F2002300FB03F31344434AA0FB7E
:101EE0000212FA620A46BA62FA6A1344FB627B6B18
:101EF0000022BB61FA61D7E90623D7E90A01FEF7A0
:101F0000BFF902460B461346FB6353E0354B5B6853
:101F10009B0900223B617A613B69C3F3080A4FF0D9
:101F2000000B52465B464FF000004FF00001590194
:101F300041EAD261500102460B46B2EB0A0863EB5C
:101F40000B094FF000024FF000034FEA891343EAF8
:101F500098634FEA8812B2EB080463EB09054FF06F
:101F600000024FF00003EB0043EA5473E200144612
:101F70001D4614EB0A033B6045EB0B037B604FF0FF
:101F800000024FF00003D7E9004529468B022146A5
:101F900043EA915321468A02104619467B6B002280
:101FA000BB60FA60D7E90223FEF76AF902460B46E6
:101FB0001346FB630B4B5B681B0C03F003030133FD
:101FC0005B003B63FA6B3B6BB2FBF3F3BB6302E07A
:101FD000054BBB6300BFBB6B18464037BD46BDE831
:101FE000B08F00BF003802400024F40040787D012B
:101FF00080B582B000AF78607B68002B01D10123EF
:1020000041E07B6893F83D30DBB2002B06D17B6862
:10201000002283F83C207868FEF740FF7B680222AC
:1020200083F83D207B681A687B68043319461046A4
:1020300000F0C2FA7B68012283F846207B68012207
:1020400083F83E207B68012283F83F207B680122D1
:1020500083F840207B68012283F841207B680122BD
:1020600083F842207B68012283F843207B680122A9
:1020700083F844207B68012283F845207B68012295
:1020800083F83D20002318460837BD4680BD000078
:1020900080B485B000AF78607B6893F83D30DBB2E8
:1020A000012B01D001233CE07B68022283F83D2014
:1020B0007B681B681E4A934218D07B681B68B3F18B
:1020C000804F13D07B681B681A4A93420ED07B68FE
:1020D0001B68194A934209D07B681B68174A9342D0
:1020E00004D07B681B68164A934211D17B681B6839
:1020F0009B6803F00703FB60FB68062B10D07B682E
:102100001B681A687B681B6842F001021A6007E0CE
:102110007B681B681A687B681B6842F001021A60C2
:10212000002318461437BD465DF8047B704700BF96
:10213000000001400004004000080040000C004086
:102140000040014080B582B000AF78607B681B68BA
:102150001B6903F00203022B22D17B681B68DB683A
:1021600003F00203022B1BD17B681B686FF0020295
:102170001A617B6801221A777B681B689B6903F0F0
:102180000303002B03D0786800F0F7F905E07868C6
:1021900000F0E9F9786800F0FAF97B6800221A7714
:1021A0007B681B681B6903F00403042B22D17B6846
:1021B0001B68DB6803F00403042B1BD17B681B68DE
:1021C0006FF004021A617B6802221A777B681B6831
:1021D0009B6903F44073002B03D0786800F0CDF9BD
:1021E00005E0786800F0BFF9786800F0D0F97B6806
:1021F00000221A777B681B681B6903F00803082B11
:1022000022D17B681B68DB6803F00803082B1BD115
:102210007B681B686FF008021A617B6804221A77DA
:102220007B681B68DB6903F00303002B03D078682D
:1022300000F0A3F905E0786800F095F9786800F0FF
:10224000A6F97B6800221A777B681B681B6903F07C
:102250001003102B22D17B681B68DB6803F010038E
:10226000102B1BD17B681B686FF010021A617B6812
:1022700008221A777B681B68DB6903F44073002B24
:1022800003D0786800F079F905E0786800F06BF920
:10229000786800F07CF97B6800221A777B681B68FD
:1022A0001B6903F00103012B0ED17B681B68DB68FF
:1022B00003F00103012B07D17B681B686FF001025B
:1022C0001A617868FEF7A4FD7B681B681B6903F040
:1022D0008003802B0ED17B681B68DB6803F08003D2
:1022E000802B07D17B681B686FF080021A617868C9
:1022F00000F086FB7B681B681B6903F04003402BE2
:102300000ED17B681B68DB6803F04003402B07D1CC
:102310007B681B686FF040021A61786800F041F931
:102320007B681B681B6903F02003202B0ED17B68A0
:102330001B68DB6803F02003202B07D17B681B6838
:102340006FF020021A61786800F050FB00BF083778
:10235000BD4680BD80B584B000AF78603960002391
:10236000FB737B6893F83C30012B01D10223B4E06E
:102370007B68012283F83C207B68022283F83D20A1
:102380007B681B689B68BB60BB6823F07703BB60FE
:10239000BB6823F47F43BB607B681B68BA689A60A4
:1023A0003B681B68B3F5005F3ED0B3F5005F00F2F9
:1023B0008780B3F5805F00F08680B3F5805F7FD8BB
:1023C000702B1AD0702B7BD8602B50D0602B77D815
:1023D000502B3CD0502B73D8402B58D0402B6FD86B
:1023E000302B64D0302B6BD8202B60D0202B67D8BB
:1023F000002B5CD0102B5AD062E07B6818683B68D9
:1024000099683B685A683B68DB6800F060FA7B6853
:102410001B689B68BB60BB6843F07703BB607B684D
:102420001B68BA689A604FE07B6818683B689968D7
:102430003B685A683B68DB6800F049FA7B681B68B8
:102440009A687B681B6842F480429A603CE07B6833
:1024500018683B6859683B68DB681A4600F0BDF9AC
:102460007B681B685021184600F016FA2CE07B6848
:1024700018683B6859683B68DB681A4600F0DCF96D
:102480007B681B686021184600F006FA1CE07B6838
:1024900018683B6859683B68DB681A4600F09DF98C
:1024A0007B681B684021184600F0F6F90CE07B6859
:1024B0001A683B681B681946104600F0EDF903E006
:1024C0000123FB7300E000BF7B68012283F83D20FD
:1024D0007B68002283F83C20FB7B18461037BD4602
:1024E00080BD80B582B000AF786039607B6893F8BA
:1024F0003C30012B01D1022331E07B68012283F8BB
:102500003C207B68022283F83D203968786800F01F
:10251000D3F80346002B09D07B68012283F83D20C5
:102520007B68002283F83C20012318E07B681B684D
:10253000DA687B681B6822F04002DA607B681B68FF
:10254000DA687B681B6822F48042DA607B680122CB
:1025500083F83D207B68002283F83C200023184646
:102560000837BD4680BD80B483B000AF786000BF3F
:102570000C37BD465DF8047B704780B483B000AF74
:10258000786000BF0C37BD465DF8047B704780B4AF
:1025900083B000AF786000BF0C37BD465DF8047BA8
:1025A000704780B483B000AF786000BF0C37BD4681
:1025B0005DF8047B7047000080B485B000AF7860A0
:1025C00039607B681B68FB607B68344A93420FD09C
:1025D0007B68B3F1804F0BD07B68314A934207D0C0
:1025E0007B68304A934203D07B682F4A934208D1DC
:1025F000FB6823F07003FB603B685B68FA68134379
:10260000FB607B68254A93421BD07B68B3F1804F07
:1026100017D07B68224A934213D07B68214A9342A9
:102620000FD07B68204A93420BD07B681F4A9342AD
:1026300007D07B681E4A934203D07B681D4A9342B1
:1026400008D1FB6823F44073FB603B68DB68FA68E1
:102650001343FB60FB6823F080023B685B69134314
:10266000FB607B68FA681A603B689A687B68DA628C
:102670003B681A687B689A627B68084A934203D178
:102680003B681A697B681A637B6801225A6100BF44
:102690001437BD465DF8047B704700BF0000014061
:1026A0000004004000080040000C004000400140D1
:1026B000004401400048014080B586B000AF78601A
:1026C00039600023FB757B681B689B683B613B6935
:1026D00023F070033B613B685B683A6913433B61DD
:1026E0003B6923F007033B613B681B683A6913436E
:1026F0003B617B681B683A699A603B685B68702B3A
:102700001AD0702B60D8602B54D0602B5CD8502B23
:1027100046D0502B58D8402B19D0402B54D8302BB2
:1027200055D0302B50D8202B51D0202B4CD8002BFB
:102730004DD0102B4BD047E07B6818683B68D968B8
:102740003B689A683B681B6900F0C1F840E03B6851
:102750001B68052B01D101233BE07B681B681B6ACA
:10276000FB607B681B681A6A7B681B6822F00102A9
:102770001A627B681B689B69BB60BB6823F0F0032F
:10278000BB603B681B691B01BA681343BB607B6875
:102790001B68BA689A617B681B68FA681A6217E05E
:1027A0007B6818683B6899683B681B691A4600F0AB
:1027B00014F80DE07B6818683B6899683B681B69F2
:1027C0001A4600F039F803E00123FB7500E000BF72
:1027D000FB7D18461837BD4680BD80B487B000AF7A
:1027E000F860B9607A60FB681B6A7B61FB681B6AF2
:1027F00023F00102FB681A62FB689B693B613B693D
:1028000023F0F0033B617B681B013A6913433B6192
:102810007B6923F00A037B617A69BB6813437B61A0
:10282000FB683A699A61FB687A691A6200BF1C37D3
:10283000BD465DF8047B704780B487B000AFF86098
:10284000B9607A60FB681B6A23F01002FB681A62A9
:10285000FB689B697B61FB681B6A3B617B6923F4B6
:1028600070437B617B681B037A6913437B613B691F
:1028700023F0A0033B61BB681B013A6913433B6132
:10288000FB687A699A61FB683A691A6200BF1C3773
:10289000BD465DF8047B704780B485B000AF7860BA
:1028A00039607B689B68FB60FB6823F07003FB600A
:1028B0003A68FB68134343F00703FB607B68FA68E0
:1028C0009A6000BF1437BD465DF8047B704780B442
:1028D00087B000AFF860B9607A603B60FB689B68C6
:1028E0007B617B6923F47F437B613B681A027B68D1
:1028F0001A43BB6813437A6913437B61FB687A69A7
:102900009A6000BF1C37BD465DF8047B704700002D
:1029100080B485B000AF786039607B6893F83C3054
:10292000012B01D1022350E07B68012283F83C2077
:102930007B68022283F83D207B681B685B68FB6034
:102940007B681B689B68BB60FB6823F07003FB60BF
:102950003B681B68FA681343FB607B681B68FA6876
:102960005A607B681B681C4A934218D07B681B68BE
:10297000B3F1804F13D07B681B68184A93420ED086
:102980007B681B68164A934209D07B681B68154A0E
:10299000934204D07B681B68134A93420CD1BB68F6
:1029A00023F08003BB603B685B68BA681343BB607D
:1029B0007B681B68BA689A607B68012283F83D20B7
:1029C0007B68002283F83C20002318461437BD465C
:1029D0005DF8047B704700BF000001400004004028
:1029E00000080040000C00400040014080B483B06B
:1029F00000AF786000BF0C37BD465DF8047B7047C0
:102A000080B483B000AF786000BF0C37BD465DF87E
:102A1000047B7047014B1868704700BF0C00002012
:102A200070B50D4D0D4C641BA4100026A64209D1B3
:102A30000B4D0C4C00F08EFC641BA4100026A6422B
:102A400005D170BD55F8043B98470136EEE755F8BF
:102A5000043B98470136F2E7D8330008D833000822
:102A6000D8330008DC33000802440346934200D107
:102A7000704703F8011BF9E70EB400B59CB01DAB1D
:102A8000029006906FF000410948079104910949AE
:102A900053F8042B05910068019302A900F068F82F
:102AA000029B00221A701CB05DF804EB03B0704763
:102AB0000C0000200802FFFF2DE9F0478E689E42BF
:102AC00082460C4690461F4638D88A8912F4906F89
:102AD00032D025680969A5EB0109656905EB450553
:102AE00005EBD57501334B446D109D4238BF1D4633
:102AF000530531D5294600F063FB064650B90C2337
:102B0000CAF80030A38943F04003A3814FF0FF309F
:102B1000BDE8F08721694A4600F0BEFAA38923F494
:102B2000906343F08003A381266165614E44A5EB69
:102B300009052660A5603E46BE4200D93E46206893
:102B40003246414600F0B6FAA3689B1BA360236897
:102B5000334423600020DBE72A4600F0A5FB06464D
:102B60000028E1D12169504600F0BEFAC7E7000015
:102B70002DE9F04F98468B891B069DB007460D4600
:102B800014460ED50B6963B9402100F019FB28608B
:102B9000286120B90C233B604FF0FF30D1E0402387
:102BA0006B610023099320238DF82930CDF80C8028
:102BB0003023DFF8A8818DF82A304FF00109234631
:102BC0009A4613F8012B0AB1252AF9D1BAEB040B66
:102BD0000BD05B46224629463846FFF76DFF013091
:102BE00000F0AA80099A5A4409929AF80030002B02
:102BF00000F0A28000234FF0FF32CDE905230AF157
:102C0000010A049307938DF853301A935446052212
:102C100014F8011B5148FDF7E3FA049AD8B9D0061D
:102C200044BF20238DF85330110744BF2B238DF868
:102C300053309AF800302A2B15D0079A54460020BA
:102C40004FF00A0C214611F8013B303B092B4ED9BD
:102C5000B0B1079214E0A0EB080309FA03F31343A1
:102C60000493A246D2E7039B191D1B680391002B16
:102C7000BBBF5B4242F0020207930793B8BF0492C6
:102C800023782E2B0CD163782A2B35D1039B1A1D68
:102C90001B680392002BB8BF4FF0FF33023405933B
:102CA000DFF8C8A0217803225046FDF799FA40B119
:102CB0004023A0EB0A0003FA00F0049B0343013415
:102CC000049314F8011B26488DF828100622FDF7FE
:102CD00087FA002838D0234B1BBB039B073323F014
:102CE000070308330393099B3344099367E70CFBFD
:102CF00002320C460120A5E7002301340593194652
:102D00004FF00A0C204610F8012B303A092A03D95B
:102D1000002BC5D00591C3E70CFB0121044601231C
:102D2000F0E703AB00932A460F4B04A93846AFF3F4
:102D30000080421C0646D6D1AB895B063FF52CAF1E
:102D400009981DB0BDE8F08F03AB00932A46064BEF
:102D500004A9384600F07AF8EBE700BF9C3300087E
:102D6000A633000800000000B92A0008A2330008BA
:102D70002DE9F047164699468A680B69DDF82080F0
:102D80009342B8BF1346336091F8432007460C4680
:102D90000AB1013333602368990642BF33680233B6
:102DA0003360256815F0060506D104F1190AE368B9
:102DB00032689B1AAB4226DC94F84320131E22682B
:102DC00018BF012392062BD404F14302494638462A
:102DD000C04701301ED02368E568326803F006035F
:102DE000042B08BFAD1AA36822690CBF25EAE5755C
:102DF00000259342C4BF9B1AED1800261A34B54231
:102E00001AD1002008E00123524649463846C047FF
:102E1000013003D14FF0FF30BDE8F0870135C6E740
:102E2000E1185A1C302081F84300224494F84510E0
:102E300082F843100233C7E7012322464946384649
:102E4000C0470130E6D00136D9E700002DE9FF4741
:102E50000F7E0C9D782F914680460C469A4601F1D4
:102E6000430207D8622F0AD8002F00F0D880582FCD
:102E700000F0A38004F1420584F842703AE0A7F123
:102E80006303152BF6D801A151F823F0E52E0008B5
:102E9000F92E0008752E0008752E0008752E000802
:102EA000752E0008F92E0008752E0008752E0008F2
:102EB000752E0008752E000805300008292F00081F
:102EC000E72F0008752E0008752E0008273000082F
:102ED000752E0008292F0008752E0008752E000891
:102EE000EF2F00082B681A1D1B682A6004F14205A9
:102EF00084F842300123A3E020682968060601F126
:102F000004030AD50E682B60002E03DA2D237642C7
:102F100084F843305E480A2319E00E682B6010F0F5
:102F2000400F18BF36B2EFE72B682068191D2960E3
:102F3000010601D51E6802E04606FBD51E885448EE
:102F40006F2F0CBF08230A23002184F84310656803
:102F5000A560002DA2BF216821F0040121600EB9F7
:102F6000002D4DD01546B6FBF3F103FB1167C75D8D
:102F700005F8017D3746BB420E46F4D9082B0BD12C
:102F80002368DE0708D5236961689942DEBF3023D4
:102F900005F8013C05F1FF35521B2261CDF800A078
:102FA0004B4603AA21464046FFF7E2FE01304CD1D2
:102FB0004FF0FF3004B0BDE8F087354881F8457028
:102FC0002968236851F8046B29601D0614D5DF07B2
:102FD00044BF43F0200323601EB9236823F020037D
:102FE00023601023B0E7236843F020032360782395
:102FF000284884F84530E3E7590648BFB6B2E6E70B
:103000001546BBE72B6826686169181D28603506E0
:103010001B6801D5196002E07006FBD519800023FA
:1030200023611546BAE72B681A1D2A601D6862687D
:1030300000212846FDF7D4F808B1401B60606368A2
:103040002361002384F84330A8E723692A464946D0
:103050004046D0470130ABD023689B0713D4E068CB
:10306000039B9842B8BF1846A4E70123324649465D
:103070004046D04701309BD00135E36803995B1A85
:10308000AB42F2DCEBE7002504F11906F5E700BFDF
:10309000AD330008BE3300080A44914200F1FF330B
:1030A00000D1704710B511F8014B03F8014F914260
:1030B000F9D110BD884210B501EB020402D9844257
:1030C000234607D8431EA14208D011F8012B03F86C
:1030D000012FF8E7024401468A4200D110BD13F8DF
:1030E000014D02F8014DF7E737B5002944D051F8FA
:1030F000043C0190002BA1F10404B8BFE41800F0D7
:1031000013F91E4A0198136833B96360146003B061
:10311000BDE8304000F00EB9A34208D92568611916
:103120008B4201BF19685B6849192160EDE71A46B7
:103130005B680BB1A342FAD911685518A5420BD1AF
:10314000246821445418A3421160E0D11C685B68D4
:10315000536021441160DAE702D90C230360D6E7FB
:10316000256861198B4204BF19685B68636004BFFE
:10317000491921605460CAE703B030BD6C010020DA
:1031800070B50E4E0C463168054611B900F0BCF81A
:1031900030602146284600F0B7F8431C0AD0C41C12
:1031A00024F00304A04207D0211A284600F0ACF80E
:1031B000013001D14FF0FF34204670BD7001002076
:1031C0002DE9F041CD1C25F0030508350C2D38BF45
:1031D0000C25002D074601DBA94205D90C233B60D5
:1031E00000263046BDE8F0812E4E00F09DF8336891
:1031F0001C4634BB29463846FFF7C2FF431C044631
:103200004DD134682646002E40D1236831463846D9
:1032100004EB030800F078F880453AD121680335C3
:103220006D1A25F0030508350C2D38BF0C252946ED
:103230003846FFF7A5FF01302BD023682B442360CD
:103240000EE02268521B1ED40B2A16D96119A34224
:10325000256018BF5960636808BF316062514B60D8
:10326000384604F10B0600F065F826F00706231D2A
:10327000F21AB6D09B1BA350B3E76268A3420CBFFF
:1032800032605A60ECE723466468B2E734467668F9
:10329000B9E70C233B60384600F04CF8A1E7256005
:1032A000DEE700BF6C0100202DE9F04180461446A6
:1032B0000E4621B9BDE8F0411146FFF781BF2AB99A
:1032C000FFF712FF25462846BDE8F08100F038F8E8
:1032D0008442074602D8B4EB500F12D8214640462C
:1032E000FFF76EFF05460028EDD0BC42224631466E
:1032F00028BF3A46FFF7D0FE31464046FFF7F4FEBE
:10330000E1E73546DFE7000038B5064D0023044607
:1033100008462B60FDF790FE431C02D12B6803B1D9
:10332000236038BD74010020014800F011B800BFCF
:1033300078010020014800F00CB800BF780100209F
:1033400051F8043C181F002BBCBF0B58C018704725
:1033500070477047F8B500BFF8BC08BC9E46704780
:0C336000F8B500BFF8BC08BC9E467047E2
:10336C00436F6E7461646F722054494D4552205303
:10337C00544D33320000000025303575000000003C
:10338C000000000000000000010203040607080909
:10339C00232D302B2000686C4C0065666745464732
:1033AC0000303132333435363738394142434445B5
:1033BC004600303132333435363738396162636424
:0433CC006566000032
:0833D000E0CEFF7F01000000C8
:0433D800C501000823
:0433DC00A101000843
:1033E0000024F40010000000010000001000002084
:1033F00000000000000000000000000000000000CD
:1034000000000000000000000000000000000000BC
:1034100000000000000000000000000000000000AC
:10342000000000000000000000000000000000009C
:10343000000000000000000000000000000000008C
:10344000000000000000000000000000000000007C
:04000005080010C916
:00000001FF
